:100000008A110A1205280000090008192D14081D7C
:100010002D108819AD14881DAD102C14AC1083164A
:10002000061083128316861083128316881183129A
:100030008316081183128316881D2C288312061438
:100040008316061083128610831686108312831679
:1000500088118312881536281F30830506108316F1
:100060000610831286148316861083121F308305B0
:10007000E830A0000330A1007B2083160819672810
:100080008312081D4F280615831606118312861148
:1000900083168611831283160815831259281F3080
:1000A00083050611831606118312861583168611A1
:1000B00083121F30830506168316061283128612DA
:1000C00083168612831283160815831271281F3037
:1000D000830506128316061283128616831686126D
:1000E00083121F308305E830A0000330A1007B207D
:1000F0001B2879287A28A008031986288D20A003B8
:10010000000000000000000000007B28A108031987
:1001100008008D20A103A0037B280C30A500A50BAF
:100120008F28000000001230A200A20B9C289E2005
:100130009E200000000008009E2095280D30A4009D
:08014000A40BA0280000080038
:02400E00713D02
:00000001FF
